:020000020000FC
:0200000014C02A
:0A0400003F065B4F666D7D077F6FBE
:02000400B8C082
:0200080080C0B6
:02000C0083C0AF
:1000280067C000E00DBF01E00EBFFF27F0BFFFEF84
:10003800FABBFBEFF7BBF4E0F8BBFFE3F4BBF0EC73
:10004800F5BBF3EFF1BBFCE0F2BB78940AE005BF27
:10005800002704BF00EE0BBF02E009BF0AE012E070
:10006800502F662771E0FCE1F8BB04C05A95AA2717
:10007800511749F1A3B3A6FD4ED0BB275F3F61F1ED
:10008800F3ECFCBFFDE0F3BFF4E0852F99278A303D
:1000980018F08A509395FBCFE92FC491E82FB491BB
:1000A800A898A99AAA98AB9AAC9AAD9ACBBB68D0F3
:1000B800A89AA998AA9AAB98AC9AAD9ABBBB60D0FB
:1000C800AF3FA1F2EDCF713009F003C096E198BBC4
:1000D800D1CF95E298BBCECF502F713009F004C034
:1000E80095E498BB72E0C6CF9CE198BB71E0C2CFA3
:1000F8006395653009F018956627992793BFAFEF88
:100108001895713011F0512F53951895723011F0E0
:10011800512F53951895C098C198C398C498C598FD
:10012800C698A89AA99AAA9AAB9A992793BFF4E075
:10013800B9EC909A802F99278A3018F08A509395B5
:10014800FBCFE92F9491AC98AD9A9BBB19D0E82FBF
:100158009491AC9AAD989BBB13D0A3B3A6FF01C0F2
:10016800E9CF909871E0FCE1F8BB502F0895B93CB5
:1001780009F0189503950D3308F418950AE01895B9
:10018800D8E2D3BDDFE0D5BDD8B7D7FFFDCFD0E8E3
:08019800D8BFDD27D5BD089595
:00000001FF
